:100000000C94B0040C94FD070C94D6070C94D804FF
:100010000C94D8040C94D8040C94D8040C94D804F0
:100020000C94D8040C94D8040C94D8040C94520961
:100030000C94D8040C94D8040C94D8040C94D804D0
:100040000C948C070C94D8040C94C8060C94A2064B
:100050000C94D8040C94D8040C94D8040C94D804B0
:100060000C9424080C94D804084AD73B3BCE016E6C
:1000700084BCBFFDC12F3D6C74319ABD56833DDAFF
:100080003D00C77F11BED9E4BB4C3E916BAAAABE0E
:10009000000000803F0001B202FFFF01900409232D
:1000A000A135016A0206000160080000000000009E
:1000B00000000060044000000001620200000060D7
:1000C0000400400000037B034CCD6C03AB033656A9
:1000D0007600680402CB47A202180400058BC10118
:1000E0000C0400000000037F060CC92C97979703AF
:1000F0008903264666006C022000024004000000CE
:100100000002440400000000024804000000000255
:100110004C040000000002500400000000025404DF
:100120000000000002580400000000025C0400000F
:10013000000002BC040000000001EC0400004000CC
:10014000037F060CC92C9797970402030D355D04B5
:100150000904872D353D00A301000000000107863A
:1001600001FE074105F120283038077E013007469F
:10017000019A074704F1283038076C04F128303819
:100180000216020001FB00003E000B0036000100D9
:10019000020003000000650054FFEF0000FA800039
:1001A0000B128200010002000000000000000000AD
:1001B000000000000000280000FFFF4581FFFFFA5B
:1001C0007200000000000003E80000000100017F51
:1001D000FFFFFE8001001B00000000000000000087
:1001E0000000000000003E03304000000002CAE3AF
:1001F000093E8000002000000000000000400000D8
:10020000006000000041FF000000000B2A00001603
:100210005500002182FD872650FD800000001F0050
:100220000000058000000000000001000000020046
:100230000000030000400000000000046F000265A1
:100240003200005EC040000000000000000000001E
:100250000000000000FB8C6F5DFD5D08D9007C7321
:100260003B006C12CC3200139D3200D0D632000815
:1002700000400001F4FFE68079020000000000D099
:10028000D600002710FB0000004000000000000026
:10029000000000000000000001000000000000015C
:1002A00000010000000000FA36FFBC308E0005FBA4
:1002B000F0FFD95BC8FFD09ABE000010A9FFF41E62
:1002C000B200CEBBF70000000100000004000200F5
:1002D000020200000CFFC280000001800000CF80FD
:1002E00000400000000000000100000000000006C7
:1002F00000000000140000000000000000000000EA
:1003000000000000000000000000000000000000ED
:1003100000000000000000000000000000000000DD
:10032000000000000000000000033F68B679352897
:10033000BCC67ED16C80000000400000000000B20E
:100340006A00000000000000000000000000003F04
:10035000F00000003000000000000000000000007D
:10036000000000000000000000000000000000008D
:1003700000000000000000254D002F706D000005FA
:10038000AE000C02D00000000000650054FFEF003A
:100390000000000000000001000044000000000C0C
:1003A0000000000100000000000065000000540093
:1003B00000FFEF000000000000000000000000004F
:1003C00000000000004000000000000000000000ED
:1003D00000000000004000000000000000000000DD
:1003E000000000000000000001000000020000000A
:1003F00000000000000000000000000000000000FD
:1004000000000000000000000000000000000000EC
:100410000000000000001B000000000000000000C1
:1004200000000000000000000000000000000000CC
:1004300000000000000000000000000000000000BC
:100440000040000000001B00000000000000000051
:10045000000000000000000000000000000000009C
:10046000000000000000000000000000000000008C
:10047000000000000000000000000000000000007C
:100480000000000000D8DCBAA2F1DEB2B8B4A88146
:1004900091F74A907F916AF3F9DBA8F9B0BAA0808E
:1004A000F2CE81F3C2F1C1F2C3F3CCA2B280F1C6A5
:1004B000D880BAA7DFDFDFF2A7C3CBC5B6F087A22B
:1004C000942448703C95406834589B78A2F18392FC
:1004D0002D557DD8B1B4B8A1D09180F270F370F2EF
:1004E0007C80A8F101B09887D943D886C988BAA181
:1004F000F20EB89780F1A9DFDFDFAADFDFDFF2AA13
:10050000C5CDC7A90CC92C97979797F1A9892646FD
:1005100066B0B4BA80ACDEF2CAF1B28C02A9B69869
:1005200000890E161EB8A9B4992C547CB08AA896DE
:10053000365676F1B9AFB4B083C0B8A89711B18F71
:1005400098B9AFF0240844106418F1A329557DAF81
:1005500083B593AFF0002850F1A3869F61A6DADE41
:10056000DFD9FAA38696DB31A6D9F8DFBAA68FC207
:10057000C5C7B28CC1B8A2DFDFDFA3DFDFDFD8D809
:10058000F1B8A8B286B4980D355DB8AA98B0872D99
:10059000353DB2B6BAAF8C96198F9FA70E161EB412
:1005A0009AB8AA872C547CB9A3DEDFDFA3B180F20E
:1005B000C4CDC9F1B8A9B499830D355D89B9A32D0E
:1005C000557DB593A30E161EA92C547CB8B4B0F17A
:1005D0009783A81184A50998A383F0DA240844100E
:1005E0006418D8F1A529557DA58595021A2E3A568D
:1005F0005A4048F9F3A3D9F8F098832408441064CA
:10060000189782A8F111F098A2240844106418DA0F
:10061000F3DED883A59401D9A302F1A2C3C5C7D83C
:10062000F18492A24DDA2AD84869D92AD86855DAD5
:1006300032D85071D932D8705DDA3AD85879D93A6F
:10064000D87893A34DDA2AD84869D92AD86855DAD8
:1006500032D85071D932D8705DDA3AD85879D93A4F
:10066000D878A88A9AF02850789EF38818F19F1DB0
:1006700098A8D908D8C89F129EF315A8DA1210D8E6
:10068000F1AFC8978734B5B994A421F3D922D8F231
:100690002DF3D92AD8F235F3D932D881A46060611C
:1006A000D961D86C6869D969D8747071D971D8B1B9
:1006B000A384193D5DA3831A3E5E9310308110110F
:1006C000B8B0AF8F94F2DA3ED8B49AA88729DAF896
:1006D000D8879A35DAF8D8879A3DDAF8D8B1B9A42C
:1006E0009885022E56A581000C14A397B08AF12D8F
:1006F000D928D84DD948D86DD968D8B1840DDA0E2B
:10070000D8A32983DA2C0ED8A3844983DA2C4C0E83
:10071000D8B8B0A88A9AF520AADADFD8A840AAD01B
:10072000DADED8A860AADAD0DFD8F19786A8319BA4
:10073000069907AB9728889BF00C201440B8B0B4FA
:10074000A88C9CF0042851791D301438B282ABD0AB
:10075000982C505078789BF11AB0F08A9CA82951B7
:10076000798B2951798A2470598B2058718A446970
:10077000388B3940688A6448318B304960A58820BD
:100780000971584468113964493019F1AC002C548E
:100790007CF08CA804285078F1889726A85998AC4A
:1007A0008C02264666F0899CA82951792470594408
:1007B0006938644831A98809205970AB11384069FB
:1007C000A8193148608CA83C415C207C00F18798D6
:1007D0001986A86E767EA999882D557D9EB9A38A23
:1007E000228A6E8A568A5E9FB183062646660E2E40
:1007F0004E6E9DB8AD002C547CF2B18CB499B9A367
:100800002D557D8191AC38AD3AB58391AC2DD92869
:10081000D84DD948D86DD968D88C9DAE29D904AEA9
:10082000D851D904AED879D904D881F39DAD008DC3
:10083000AE1981ADD901D8F2AEDA26D88E912983CE
:10084000A7D9ADADADADF32AD8D8F1B0AC89913E02
:100850005E76F3AC2E2EF1B18C5A9CAC2C28282855
:100860009CAC3018A8988128343C9724A728343CA5
:100870009C24F2B089AC912C4C6C8A9B2DD9D8D891
:1008800051D9D8D879D9D8D8F19E88A331DAD8D817
:10089000912DD928D84DD948D86DD968D8B183932E
:1008A000353D8025DAD8D88569DAD8D8B49381A3C4
:1008B00028343CF3AB8BF8A391B609B4D9ABDEFA7C
:1008C000B0879CB9A3DDF1A3A3A3A395F1A3A3A330
:1008D0009DF1A3A3A3A3F2A3B49080F2A3A3A3A327
:1008E000A3A3A3A3A3A3B2A3A3A3A3A3A3B087B5C6
:1008F00099F1A3A3A398F1A3A3A3A397A3A3A3A34D
:10090000F39BA3A3DCB9A7F1262626D8D8FF0000C5
:1009100000080002010000030407000000000000BE
:10092000000000000000250028002B00000000004F
:10093000240027002A00040404040404040402021E
:10094000020202020303030303030102040810204E
:1009500040800102040810200102040810209918A8
:1009600011241FBECFEFD8E0DEBFCDBF11E0A0E065
:10097000B1E0E6EBFDE302C005900D92A035B107B2
:10098000D9F723E0A0E5B1E001C01D92AF3AB2076C
:10099000E1F714E0C0EBD4E004C02197FE010E940F
:1009A0008A1CCF3AD107C9F70E94230F0C94D91E95
:1009B0000C940000FC01538D448D252F30E0842FD2
:1009C00090E0821B930B541710F0CF960895019777
:1009D0000895FC01918D828D981761F0828DDF0161
:1009E000A80FB11D5D968C91928D9F5F9F73928F22
:1009F00090E008958FEF9FEF0895FC01918D828D17
:100A0000981731F0828DE80FF11D858D90E00895E3
:100A10008FEF9FEF0895FC01918D228D892F90E03B
:100A2000805C9F4F821B91098F739927089581ECF9
:100A300092E00E940B0521E0892B09F420E0822F2F
:100A40000895FC01848DDF01A80FB11DA35ABF4F8B
:100A50002C91848D90E001968F739927848FA689BD
:100A6000B7892C93A089B1898C9180648C93938DE4
:100A7000848D981306C00288F389E02D80818F7DD4
:100A800080830895EF92FF920F931F93CF93DF938C
:100A9000EC0181E0888F9B8D8C8D981305C0E889CF
:100AA000F989808185FD24C0F62E0B8D10E00F5F43
:100AB0001F4F0F731127E02E8C8DE8120CC00FB65C
:100AC00007FCFACFE889F989808185FFF5CFCE014F
:100AD0000E942105F1CF8B8DFE01E80FF11DE35A35
:100AE000FF4FF0820B8FEA89FB898081806207C00B
:100AF000EE89FF896083E889F98980818064808339
:100B000081E090E0DF91CF911F910F91FF90EF90E6
:100B10000895CF93DF93EC01888D8823C9F0EA898B
:100B2000FB89808185FD05C0A889B9898C9186FDE6
:100B30000FC00FB607FCF5CF808185FFF2CFA889E3
:100B4000B9898C9185FFEDCFCE010E942105E7CFB9
:100B5000DF91CF91089580E090E0892B29F00E94E9
:100B6000170581110C94000008953FB7F894809107
:100B7000720290917302A0917402B091750226B531
:100B8000A89B05C02F3F19F00196A11DB11D3FBFC5
:100B9000BA2FA92F982F8827820F911DA11DB11D53
:100BA000BC01CD0142E0660F771F881F991F4A954F
:100BB000D1F70895089585ED8093BC008091BC0025
:100BC00084FDFCCF10929C02089540914802262F8C
:100BD00030E0240F311D21323105DCF420919C02DC
:100BE0002430C9F4FC0180E090E0861758F430917D
:100BF00048022191DC01AA5DBD4FA30FB11D2C93CA
:100C00000196F3CF80914802680F6093480280E01C
:100C1000089581E0089582E008950895E0915101DA
:100C200080915001E81730F4F0E0EA5FFD4F8081D9
:100C300090E008958FEF9FEF08959091510180917A
:100C40005001981750F4E92FF0E0EA5FFD4F208142
:100C500030E09F5F9093510102C02FEF3FEFC90139
:100C600008958091500190E020915101821B9109DB
:100C70000895CF92DF92EF92FF920F931F93CF933D
:100C8000DF937C01262F972F8A0180919D02882374
:100C900091F0C62FD72F6E01C40ED51ECC15DD05E1
:100CA00071F06991D701ED91FC910190F081E02DF7
:100CB000C7010995F3CF642F822F0E94E505C80173
:100CC000DF91CF911F910F91FF90EF90DF90CF9028
:100CD0000895CF93DF931F92CDB7DEB7698320913C
:100CE0009D022223D1F02091C002203240F021E069
:100CF00030E0FC013383228380E090E015C08091D6
:100D00009E02E82FF0E0E156FD4F998190838F5FBE
:100D100080939E028093C00205C061E0CE010196DF
:100D20000E94E50581E090E00F90DF91CF9108955A
:100D3000089580E090E0089581E080935201089545
:100D40000E94871E1F920F920FB60F9211242F93AD
:100D50003F934F935F936F937F938F939F93AF9343
:100D6000BF93EF93FF9381EC92E00E942105FF91E6
:100D7000EF91BF91AF919F918F917F916F915F9113
:100D80004F913F912F910F900FBE0F901F9018958C
:100D90001F920F920FB60F9211242F938F939F9350
:100DA000EF93FF93E091D102F091D2028081E09124
:100DB000D702F091D80282FD12C090818091DA02B0
:100DC0008F5F8F732091DB02821751F0E091DA027E
:100DD000F0E0EF53FD4F958F8093DA0201C08081E0
:100DE000FF91EF919F918F912F910F900FBE0F90D8
:100DF0001F90189590E0FC01E25FF64F3491FC01E2
:100E0000E65BF64F2491FC01EA5CF64FE491EE2399
:100E100009F43BC0332339F1333091F038F43130E9
:100E2000A9F0323001F584B58F7D12C0373091F0D2
:100E30003830A1F03430B9F4809180008F7D03C048
:100E4000809180008F77809380000DC084B58F776C
:100E500084BD09C08091B0008F7703C08091B0003D
:100E60008F7D8093B000F0E0EE0FFF1FEE5DF64F38
:100E7000A591B4918FB7F894EC91611103C02095BE
:100E80002E2301C02E2B2C938FBF08958F929F92FB
:100E9000AF92BF92CF92DF92EF92FF926B017C01F3
:100EA0000E94B5054B015C01C114D104E104F104B9
:100EB000F1F00E94B505DC01CB0188199909AA0956
:100EC000BB09883E9340A105B10570F321E0C21A29
:100ED000D108E108F10888EE880E83E0981EA11C75
:100EE000B11CC114D104E104F10419F7DDCFFF9066
:100EF000EF90DF90CF90BF90AF909F908F9008952C
:100F00002FB7F89460916E0270916F028091700219
:100F1000909171022FBF08951F920F920FB60F92FA
:100F200011242F933F938F939F93AF93BF938091FF
:100F30006E0290916F02A0917002B0917102309197
:100F40006D0223E0230F2D3720F40196A11DB11D62
:100F500005C026E8230F0296A11DB11D20936D0246
:100F600080936E0290936F02A0937002B09371020F
:100F70008091720290917302A0917402B0917502F7
:100F80000196A11DB11D8093720290937302A093EC
:100F90007402B0937502BF91AF919F918F913F9171
:100FA0002F910F900FBE0F901F9018951F920F92C8
:100FB0000FB60F9211242F933F934F935F936F932C
:100FC0007F938F939F93AF93BF93EF93FF93E091A2
:100FD0000201F09103010995FF91EF91BF91AF914B
:100FE0009F918F917F916F915F914F913F912F9141
:100FF0000F900FBE0F901F9018951F920F920FB673
:101000000F9211242F933F934F935F936F937F938E
:101010008F939F93AF93BF93EF93FF93E091000162
:10102000F09101010995FF91EF91BF91AF919F91CF
:101030008F917F916F915F914F913F912F910F9081
:101040000FBE0F901F9018951F920F920FB60F9220
:1010500011242F933F934F935F936F937F938F93BD
:101060009F93AF93BF93EF93FF938091B900887FD5
:10107000803609F49CC068F5883209F45BC090F4AE
:10108000803109F454C038F4882309F4F6C088305C
:1010900009F44DC0F6C0883109F44CC0803209F41F
:1010A0005DC0EFC0803409F468C048F4803309F4AF
:1010B00055C0883309F0E5C080939A02D8C08035C6
:1010C00009F44FC0883509F45DC0883409F0D9C0EF
:1010D000D6C0883909F4C7C0A8F4883709F467C0B6
:1010E00038F4883609F463C0803709F460C0C9C099
:1010F000883809F4B8C0803909F45FC0803809F035
:10110000C0C05BC0803B09F486C038F4803A09F463
:1011100066C0883A09F47FC0B4C0803C09F4A7C017
:10112000883C09F4A4C0883B09F48AC0AAC0809115
:10113000770210C09091990280919802981770F5EB
:10114000E091990281E08E0F80939902F0E0E858D7
:10115000FD4F80818093BB0085EC86C080939A020E
:101160008EC0E091990281E08E0F80939902809168
:10117000BB00F0E0E858FD4F808390919902809188
:1011800098026EC0E091990281E08E0F80939902DF
:101190008091BB00F0E0E858FD4F808380919B0276
:1011A00081116DC081E08093760284EA61C083E0A2
:1011B00080939C0210926C02CFCF80916C0280329F
:1011C00008F051C0E0916C0281E08E0F80936C02B8
:1011D0008091BB00F0E0E45BFD4F8083BDCF85ECE8
:1011E0008093BC0010929C0280916C02803230F49B
:1011F000E0916C02F0E0E45BFD4F108260916C02C4
:1012000070E0E0914A02F0914B028CE492E0099583
:1012100010926C0236C084E080939C0210924902C6
:1012200010924802E0914602F091470209958091A0
:101230004802811105C081E0809348021092260285
:10124000E091490281E08E0F80934902F0E0EA5D6F
:10125000FD4F80818093BB009091490280914802AC
:10126000981708F479CF85E88093BC000AC085EC14
:101270008093BC0010929C0204C010929A020E94BB
:10128000DB05FF91EF91BF91AF919F918F917F917E
:101290006F915F914F913F912F910F900FBE0F90E3
:1012A0001F9018951F920F920FB60F9211242F9333
:1012B0003F934F935F936F937F938F939F93AF93DE
:1012C000BF93CF93EF93FF9380910202909103021B
:1012D00001969093030280930202209104023091C0
:1012E00005022F5F3F4F3093050220930402C09107
:1012F0000002EC2FF0E0EE0FFF1FE052FE4F2081C6
:1013000031818217930708F441C0109203021092B2
:1013100002028091E0019091E1010196B9F1809182
:10132000DE01882381F061E08CE00E94FA06809162
:10133000DA019091DB01A091DC01B091DD01019611
:10134000A11DB11D0FC060E08CE00E94FA068091E3
:10135000DA019091DB01A091DC01B091DD010197F0
:10136000A109B1098093DA019093DB01A093DC011C
:10137000B093DD01CF5FC770C093000261E08BE0E6
:101380000E94FA0660E08BE00E94FA06C09101021A
:10139000EC2FF0E0EE0FFF1FE051FE4F2091040212
:1013A00030910502808191812817390708F441C0E6
:1013B00010920502109204028091F0019091F101C7
:1013C0000196B9F18091DF01882381F061E089E025
:1013D0000E94FA068091D6019091D701A091D80180
:1013E000B091D9010196A11DB11D0FC060E089E047
:1013F0000E94FA068091D6019091D701A091D80160
:10140000B091D9010197A109B1098093D6019093B8
:10141000D701A093D801B093D901CF5FC770C09313
:10142000010261E088E00E94FA0660E088E00E9424
:10143000FA06FF91EF91CF91BF91AF919F918F915C
:101440007F916F915F914F913F912F910F900FBEC0
:101450000F901F901895CF93DF93613991E0790732
:1014600014F060E971E06037CEEF7C0714F460E7B8
:101470007EEF90E0AC01440F551FFA01EE52FE4F93
:1014800020813181DB01A21BB30BA730B1051CF019
:101490002A5F3F4F05C0AA3FBF4F2CF426503109A9
:1014A0003183208302C071836083FA01EE52FE4FC4
:1014B000C081D1812097B1F454E0880F991F5A95CB
:1014C000E1F720E030E04FEF5FEFF901E80FF91F9F
:1014D000E052FE4F518340832E5F3F4F2031310554
:1014E000A1F76FC0FC01E252FE4F21E01C161D0661
:1014F0000CF420E02083D7FF03C0D195C195D1091A
:101500009C0144E0220F331F4A95E1F7F901E052B4
:10151000FE4F88EE93E0BE010E94541C71836083ED
:10152000C90120E030E040815181D901A80FB91FE5
:10153000A052BE4F13965C934E9312972E5F3F4F6F
:101540002E30310581F788EE93E0BE010E94541CD5
:1015500023E0880F991F2A95E1F7BE010E94541CD1
:10156000662379F18281938101969383828361302E
:1015700041F182859385019693878287623009F1D4
:10158000868197810196978386836330D1F0868523
:101590009785019697878687643099F0808191813D
:1015A000019691838083653061F0808591850196F5
:1015B00091878087663029F0848195810196958393
:1015C00084838091D2019091D301892B61F4809121
:1015D000D4019091D501892B31F461E08AE00E9419
:1015E000FA0661E005C060E08AE00E94FA0660E069
:1015F00087E0DF91CF910C94FA06EF92FF920F9360
:101600001F93CF93DF9300D0CDB7DEB7142F91E0B7
:1016100090939D028093BF0210929E021092C0028E
:101620008EE593E029833A830E9469062981022F7F
:10163000E22E3A81F32E8E2D801B811740F4F701A4
:1016400061917F018EE593E00E946906F4CF0E94CC
:10165000FC0C91E0811190E0892F0F900F90DF91A9
:10166000CF911F910F91FF90EF900895CF93DF934B
:101670001F92CDB7DEB749839E012F5F3F4F41E0F8
:101680000E94FD0A0F90DF91CF9108952F923F9213
:101690004F925F926F927F928F929F92AF92BF9282
:1016A000CF92DF92EF92FF920F931F93CF93DF932E
:1016B000CDB7DEB727970FB6F894DEBF0FBECDBF0C
:1016C000E82E6B834F8369010E9480074B015C0108
:1016D0006E2C660CF12C1E82772473945F81452F4B
:1016E00050E05D834C831801412C512C4F81F4163E
:1016F00008F099C070929D02E092BF0210929E0283
:101700001092C0026B818EE593E00E9469060E94F0
:10171000FC0C70929D02E092BF0210929E02109209
:10172000C00280919C028111FCCF2C813D812F1938
:1017300031092132310514F020E230E0213208F085
:1017400020E270929C0270929B028FEF80939A022B
:1017500010929902820F8093980270927702809182
:10176000770286298093770280917602813071F426
:1017700010927602809177028093BB008091BC002A
:1017800083FDF8CF95EC9093BC0003C0E5EEE093A9
:10179000BC0080919C028130E1F380919902821714
:1017A00010F420919902A8E7B2E0E6E0F2E08E2F73
:1017B00046E052E0841B821718F48D918193F7CF95
:1017C000109251012093500190915001809151014C
:1017D000981719F10115110599F4A6012E81420FF0
:1017E000511D27FD5A955A8349838EE593E00E9447
:1017F0001D06E981FA8180832E812F5F2E83E4CF3D
:101800000E948007DC01CB0188199909AA09BB094C
:1018100082159305A405B50500F38F81813208F088
:1018200080E2F80E63CFFE8001151105D9F00E9409
:101830008007DC01CB0188199909AA09BB0920E0BE
:1018400030E080179107A207B30760F05F81252F72
:1018500030E08F2D0F2C000C990B8217930714F496
:10186000FF24FA948F2D27960FB6F894DEBF0FBE93
:10187000CDBFDF91CF911F910F91FF90EF90DF903F
:10188000CF90BF90AF909F908F907F906F905F9020
:101890004F903F902F900895BF92CF92DF92EF929A
:1018A000FF920F931F93CF93DF931F92CDB7DEB7B5
:1018B000F82EE62EC42EB22ED02E08EE13E09E0196
:1018C0002F5F3F4F41E00E94460B882321F1EC2D12
:1018D000F0E0EB19F109319621E030E002C0220F6F
:1018E000331FBA94E2F7215031090E2E01C0220FA6
:1018F0000A94EAF78D2D01C0880FEA95EAF7422F86
:101900004095998149232823422B49836E2D8F2DA1
:101910000E94360B01C080E00F90DF91CF911F91A4
:101920000F91FF90EF90DF90CF90BF900895CF92EE
:10193000DF92EF92FF920F931F93CF93DF931F924B
:10194000CDB7DEB7F82EE62ED42EC22E08EE13E069
:101950009E012F5F3F4F41E00E94460B9981CC20B2
:1019600041F041E050E001C0440FDA94EAF7492B1E
:1019700009C021E030E0A90101C0440FDA94EAF780
:101980004095492349836E2D8F2D0E94360B0F9071
:10199000DF91CF911F910F91FF90EF90DF90CF904B
:1019A0000895CF92DF92EF92FF920F931F93CF9300
:1019B000DF936C017A018B01C0E0D0E0CE15DF052A
:1019C00089F0D8016D918D01D601ED91FC910190C6
:1019D000F081E02DC6010995892B11F47E0102C02A
:1019E0002196ECCFC701DF91CF911F910F91FF900E
:1019F000EF90DF90CF9008952091C0029091BF02A8
:101A0000213208F04AC080919C028111FCCF32E063
:101A100030939C0231E030939B023FEF30939A0267
:101A20001092990220939802AFE9B2E048E752E0A1
:101A3000FA013E2F341B321718F43D913193F9CF40
:101A40001092770220917702990F922B9093770250
:101A500090917602913061F4109276029091770223
:101A60009093BB009091BC0093FDF8CF95EC01C022
:101A700095EE9093BC0090919C029230E1F390918E
:101A80009A029F3F79F080919A02803241F08091D2
:101A90009A02803331F084E005C081E003C082E027
:101AA00001C083E010929E021092C00210929D022B
:101AB00008950F931F93CF93DF93C6E8D3E008EE0A
:101AC00013E027E833E041E06AE388810E94460B97
:101AD0008981DF91CF911F910F910895009769F04F
:101AE000FC0101900020E9F73197AF01481B590B29
:101AF000BC0181EC92E00C94D10C80E090E0089560
:101B0000CF93DF93EA0191E090939D028093BF020F
:101B100010929E021092C0028EE593E00E94690628
:101B200069818EE593E00E94690668818EE593E005
:101B30000E9469060E94FC0C91E0811190E0892FBF
:101B4000DF91CF91089521E042E06AE6809186031B
:101B50000C94970C482F6EE6809186030C94360BFC
:101B60002F923F924F925F926F927F928F929F92AD
:101B7000AF92BF92CF92DF92EF92FF920F931F939B
:101B8000CF93DF933C015B01342ED22F202E4F7177
:101B90006DE6809186030E94360B8D2F0E94AA0D60
:101BA00080E190E00E94901C6C01002339F080E1FC
:101BB00090E00E94901CC82F492E02C0C0E0412C2A
:101BC000E12CF12CEA14FB0408F06EC0C70140962A
:101BD000A816B90618F45A2C5E1802C080E1582ED7
:101BE000852D90E020E031E02D1B310928173907C1
:101BF00014F45D2E5194F301EE0DFF1D222059F0D7
:101C00009C2FAC2FB42D8A2F891B851530F484911D
:101C10008D933196F8CFCE2F4F2E2C2F342D452D6E
:101C20006FE6809186030E94FD0A852C912CC114D9
:101C3000D10429F1432D4F716DE6809186030E94F6
:101C4000360B8D2F0E94AA0D08EE13E09601452D4C
:101C50006FE6809186030E94460BA401B6018C2F8B
:101C6000942D0E948C1E892B51F0C6010E94251DC7
:101C7000222021F18C2F942D0E94251D1FC0E80CDD
:101C8000F91CD50DEA14FB0408F09CCFD11101C05A
:101C90003394432D4F716DE6809186030E94360B7D
:101CA0008D2F0E94AA0D8ECFC6010E94251D2220D5
:101CB00039F08C2F942D0E94251D02C080E001C0B8
:101CC00081E0DF91CF911F910F91FF90EF90DF9016
:101CD000CF90BF90AF909F908F907F906F905F90CC
:101CE0004F903F902F9008950F931F93662351F0CC
:101CF000462F9C0108EE13E064E7809186030E9462
:101D0000460B02C0FC0110821F910F9108950F93A2
:101D10001F93CF93DF93C6E8D3E008EE13E027E8E4
:101D200033E042E062E788810E94460B898190E0BF
:101D3000982F88272A81822BDF91CF911F910F91B5
:101D40000895EF92FF920F931F93CF93DF931F920B
:101D5000CDB7DEB77A0189019E012F5F3F4F41E089
:101D60000E94460B882339F029812E7730E0359583
:101D70002795F70120830F90DF91CF911F910F914D
:101D8000FF90EF90089590E0FC01E65BF64F249100
:101D9000FC01EA5CF64F8491882399F090E0880F6B
:101DA000991FFC01E45DF64FA591B491FC01EE5D35
:101DB000F64F859194918FB7F894EC91E22BEC93C8
:101DC0008FBF08958F929F92AF92BF920F931F93F0
:101DD000CF93DF93CDB7DEB7A1970FB6F894DEBFF0
:101DE0000FBECDBF19A2423008F44AE08E010F5D4C
:101DF0001F4F842E912CA12CB12CA50194010E947F
:101E0000681CE62FB901CA0101501109EA3014F427
:101E1000E05D01C0E95CD801EC93232B242B252B3A
:101E200061F7C8010E946E0DA1960FB6F894DEBF4F
:101E30000FBECDBFDF91CF911F910F91BF90AF909B
:101E40009F908F900895CF93DF93CDB7DEB7CE5A92
:101E5000D1090FB6F894DEBF0FBECDBF789484B51C
:101E6000826084BD84B5816084BD85B5826085BD96
:101E700085B5816085BD80916E00816080936E0024
:101E80001092810080918100826080938100809116
:101E900081008160809381008091800081608093C7
:101EA00080008091B10084608093B1008091B00087
:101EB00081608093B00080917A00846080937A0082
:101EC00080917A00826080937A0080917A008160AC
:101ED00080937A0080917A00806880937A001092D3
:101EE000C10060E070E080E00E942B0A60E070E0DA
:101EF00081E00E942B0AE091D102F091D20282E0AF
:101F00008083E091CD02F091CE021082E091CF0269
:101F1000F091D00280E180831092D902E091D50245
:101F2000F091D60286E08083E091D302F091D40252
:101F3000808180618083E091D302F091D40280811E
:101F400088608083E091D302F091D4028081806820
:101F50008083E091D302F091D40280818F7D8083D1
:101F60008DE00E94C30E8CE00E94C30E8BE00E94A5
:101F7000C30E8AE00E94C30E89E00E94C30E88E06F
:101F80000E94C30E87E00E94C30E61E08AE00E94B7
:101F9000FA0661E087E00E94FA06809181008F7E58
:101FA000809381008091810088608093810080917E
:101FB00080008D7F80938000809180008E7F809351
:101FC0008000809180008F738093800080918000DA
:101FD0008F7C8093800080918100887F82608093D5
:101FE000810080E590E090938900809388001092B2
:101FF00085001092840080916F00826080936F0052
:1020000060E08AE00E94FA0660E087E00E94FA063B
:10201000109251011092500110929E021092C00233
:1020200010929C0281E080939B021092760261E004
:1020300082E10E94FA0661E083E10E94FA06809143
:10204000B9008E7F8093B9008091B9008D7F809315
:10205000B90088E48093B80085E48093BC0088E1EF
:102060008093B80001E023E042E06BE680918603B4
:102070000E944C0C00E022E044E06BE1809186037A
:102080000E944C0C22E044E06CE1809186030E94A7
:102090004C0C20E046E06BE6809186030E94970C92
:1020A00021E047E06BE6809186030E94970C6EE189
:1020B00070E080E090E00E94460720E046E06BE69A
:1020C000809186030E94970C40E76DE6809186031D
:1020D0000E94360B86E00E94AA0D40E06DE68091DA
:1020E00086030E94360B28EE33E047E853E060E0B9
:1020F000809186030E94A10E8090870328EE33E032
:1021000047E853E061E0809186030E94A10E909021
:10211000870328EE33E047E853E062E080918603CE
:102120000E94A10EA09087034FE765E2809186038D
:102130000E94360B20E045E06AE6809186030E940B
:10214000970C48E665E2809186030E94360B21E0F9
:1021500041E06AE6809186030E94970C64E170E09A
:1021600080E090E00E94460701E020E040E069E85E
:1021700077E085E891E00E94B00D882309F4CDC294
:1021800088E090E00E94901CB82E192FE12CF12CD1
:10219000F701EB53FF4F4491F701EA53FF4F2491AE
:1021A000670133E0C30ED11CF701E953FF4FE491FF
:1021B000EE23D1F1EE2EF12CE330D8F0B7018B2DC8
:1021C000912FC255DF4F2883CE5AD040C355DF4FE1
:1021D0004883CD5AD0400E94BD1DB82E192FC3553B
:1021E000DF4F4881CD5AD040C255DF4F2881CE5AAB
:1021F000D040AB2DB12F80E090E08E159F0548F4C4
:10220000F601E80FF91FEB53FF4FE491ED930196B0
:10221000F4CF00E0B7018B2D912F0E94B00DEC0C94
:10222000FD1C811117C010C044E0E40EF11CF60142
:10223000EB53FF4FE491E13039F442E368E38091DE
:1022400086030E94360B06C08B2D912F0E94251D00
:1022500012E064C250ECE516F10408F499CF8B2D1E
:10226000912F0E94251D03E023E042E06BE6809160
:1022700086030E944C0C42E168E3809186030E9431
:10228000360B44E069E1809186030E94360B01E041
:1022900023E045E06AE1809186030E944C0C03E054
:1022A00023E042E06AE1809186030E944C0C22E028
:1022B00044E06BE1809186030E944C0C43E060E7B0
:1022C000809186030E94360B40E061E7809186038F
:1022D0000E94360B20E040E060E0809186030E947F
:1022E000970C082D26E046E060E0809186030E946E
:1022F0004C0C092D26E046E061E0809186030E94A7
:102300004C0C0A2D26E046E062E0809186030E9494
:102310004C0CE12CF12CF701EA56FF4FE491A1E8B7
:10232000B0E0AC0FBD1FAE0DB11DEC9381E08E0D82
:102330009FEFE91AF90AA3E0AE1568F7CD57DF4F12
:102340006881C358D04070E09B012E5F3F4F90E002
:102350002817390704F700E0CE57DF4F2881C2580D
:10236000D040CF57DF4F4881C158D04081E890E03E
:102370008C0F9D1F03960E94B00D80E0F701EA5676
:10238000FF4FE491A1E8B0E0AC0FBD1FA80FB11D55
:10239000EC938F5FBFEFEB1AFB0A843078F3CD57D5
:1023A000DF4F6881C358D04070E0AB014E5F5F4F94
:1023B000282F30E0421753070CF700E0CE57DF4FCD
:1023C0002881C258D040CF57DF4F4881C158D040F4
:1023D00081E890E08C0F9D1F03960E94B00D0E9433
:1023E000A30D0E94870E682FCE0101960E94740EE5
:1023F00042E06FE1809186030E94360B4CE961E276
:10240000809186030E94360B40E560E2809186034E
:102410000E94360B40E062E2809186030E94360BF8
:102420000E94A30D21E046E06AE6809186030E94A7
:10243000970C21E047E06AE6809186030E94970CA2
:1024400021E043E06AE6809186030E94970C80E0D9
:10245000F701EA56FF4FE491A1E8B0E0AC0FBD1FD1
:10246000A80FB11DEC938F5F2FEFE21AF20A8430B0
:1024700078F3CD57DF4F6881C358D04070E0AB018F
:102480004E5F5F4F282F30E0421753070CF700E0F4
:10249000CE57DF4F2881C258D040CF57DF4F4881F9
:1024A000C158D04081E890E08C0F9D1F03960E9498
:1024B000B00D80E0F701EA56FF4FE491A1E8B0E0EB
:1024C000AC0FBD1FA80FB11DEC938F5F3FEFE31A58
:1024D000F30A843078F3CD57DF4F6881C358D0407A
:1024E00070E0AB014E5F5F4F282F30E0421753077B
:1024F0000CF700E0CE57DF4F2881C258D040CF57AD
:10250000DF4F4881C158D04081E890E08C0F9D1F7B
:1025100003960E94B00D80E0F701EA56FF4FE49168
:10252000A1E8B0E0AC0FBD1FA80FB11DEC938F5F09
:102530004FEFE41AF40A843078F3CD57DF4F688107
:10254000C358D04070E0AB014E5F5F4F282F30E0A2
:10255000421753070CF700E0CE57DF4F2881C258CF
:10256000D040CF57DF4F4881C158D04081E890E03C
:102570008C0F9D1F03960E94B00D0E94870E833022
:102580009105D8F3682FCE0101960E94740E80E069
:10259000F701EA56FF4FE491A1E8B0E0AC0FBD1F90
:1025A000A80FB11DEC938F5F5FEFE51AF50A843039
:1025B00078F3CD57DF4F3880C358D040832C912C0F
:1025C000A4014E5F5F4F282F30E04217530704F7F6
:1025D000CE57DF4FB880C258D040CF57DF4F28804A
:1025E000C158D040422D4F716DE6809186030E9404
:1025F000360B8B2D0E94AA0DC12CD12C612C772477
:102600007394E1E84E2E512C4C0E5D1E83E0480E73
:10261000511CC814D90498F5C6014096881699062D
:1026200018F4A32CAC1802C060E1A62E8A2D90E00D
:1026300093012B1931092817390714F4AB2CA194F5
:1026400092012C0D3D1D08EE13E04A2D6FE680919E
:1026500086030E94460BCA0CD11CBA0CC814D904BC
:10266000C0F6B11001C02394422D4F716DE68091E8
:1026700086030E94360B8B2D0E94AA0DCACF0E94A2
:10268000870E83309105D8F3682FCE0101960E9402
:10269000740EF701EA56FF4F80E09491A1E8B0E094
:1026A000AC0FBD1FA80FB11D9C938F5F843010F439
:1026B0003196F3CFCD57DF4F6881C358D04070E0DB
:1026C000AB014E5F5F4F282F30E04217530784F76E
:1026D00000E0CE57DF4F2881C258D040CF57DF4FA0
:1026E0004881C158D04081E890E08C0F9D1F03962F
:1026F0000E94B00D20E047E06AE6809186030E94C8
:10270000970C8AE290E090938903809388030E945B
:10271000A30D0E94590D10E001C011E01093530168
:10272000809186032CED30E0CD56DF4F398328832E
:10273000C359D040AE014D565F4F63E10E94800DFA
:10274000809186032CE430E0CF56DF4F3983288315
:10275000C159D040AE014F565F4F65E10E94800DD8
:10276000809186032BEA3FEFCF57DF4F39832883D1
:10277000C158D040AE014F575F4F67E10E94800DB6
:10278000809186032CEF36E03A832983AE014F5FB8
:102790005F4F6AE00E94800D111123C021E047E0E5
:1027A0006AE6809186030E94970C8CE996E09093EC
:1027B000010180930001809169008360809369002A
:1027C000E89A0E94590D8093A00181E08093A501B1
:1027D00080918803909189039093A2018093A10135
:1027E00008C080E391E00E946E0D81E491E00E94B8
:1027F0006E0D0E9480070E9480076B017C01609330
:10280000CE017093CF018093D0019093D10180913C
:10281000CA019091CB01A091CC01B091CD01A7014B
:102820009601281B390B4A0B5B0BCA01B9010E94A8
:102830009F1A6093C6017093C7018093C80190935B
:10284000C901C092CA01D092CB01E092CC01F092B2
:10285000CD018091A501882321F180915201811140
:102860000BC02091A3013091A4018091A10190910E
:10287000A20128173907A8F0109252010E94590DA1
:10288000182F8093A0010E94870E9093A40180933B
:10289000A30114FD04C08115944009F0E2C10E9417
:1028A000A30DC090BA01D090BB01E090BC01F090A4
:1028B000BD01A7019601C701B6010E943A1C8823F9
:1028C00019F084E491E01AC046015701E894B7F882
:1028D0002FEF3FEF4FE75FE7C501B4010E943A1CBD
:1028E00081110FC02FEF3FEF4FE75FE7C501B40144
:1028F0000E94F01918162CF488E491E00E946E0DE5
:1029000082C02FEF3FEF4FE75FE4C701B6010E949F
:10291000761B18161CF48CE491E0F0CF2FEF3FEFFC
:102920004FE75FECC701B6010E94F01987FDF3CFB6
:1029300020E030E0A901C701B6010E94F01987FF2D
:102940000FC0E091C102F091C2020190F081E02D30
:102950006DE281EC92E00995F7FAF094F7F8F094C3
:102960002AE037ED43EA5BE3C701B6010E94121982
:102970004B015C010E946E1A6B017C010E949D1A42
:102980009B01AC01C501B4010E9411194B015C010E
:102990004AE0C701B6010E94E20EE091C102F09147
:1029A000C2020190F081E02D6EE281EC92E0099587
:1029B00020E030E040E251E4C501B4010E94831BF5
:1029C0004B015C010E946E1A6B01E12CF12C4AE074
:1029D000C701B6010E94E20EC701B6010E949D1A0E
:1029E0009B01AC01C501B4010E94111920E030E047
:1029F00040E251E40E94831B0E946E1A80E090E046
:102A00004AE00E94E20E81E491E00E946E0D809007
:102A1000BA019090BB01A090BC01B090BD01409064
:102A2000C6015090C7016090C8017090C9018092A2
:102A3000AE019092AF01A092B001B092B1012DEC25
:102A40003CEC4CEC5DE3C501B4010E94831B20917A
:102A5000AA013091AB014091AC015091AD010E94AF
:102A600012196B017C0120E030E048EC53E40E9435
:102A7000761B18162CF480E090E0A8ECB3E417C0A5
:102A800020E030E048EC53ECC701B6010E94F01999
:102A900087FD09C0C092AA01D092AB01E092AC01BF
:102AA000F092AD010CC080E090E0A8ECB3EC809314
:102AB000AA019093AB01A093AC01B093AD0120E0CB
:102AC00030E040E951E4C501B4010E94831B6B0171
:102AD0007C012091AA013091AB014091AC01509151
:102AE000AD01C301B2010E94831B9B01AC01C70170
:102AF000B6010E9412196B017C012091A601309150
:102B0000A7014091A8015091A901C501B4010E94FB
:102B1000111920E030E040E051E40E94831BA30142
:102B200092010E94F5199B01AC01C701B6010E94F8
:102B300012196B017C018092A6019092A701A092CC
:102B4000A801B092A90120E030E048EC53E40E94D3
:102B5000761B181614F120E030E048EC53ECC70166
:102B6000B6010E94F01987FD1FC020E030E040E868
:102B70005FE3C701B6010E94F01987FF1BC020E088
:102B800030E040E85FEBC701B6010E94761B1816E3
:102B90008CF4C12CD12C76010DC0C12CD12C98EC19
:102BA000E92E93E4F92E06C0C12CD12C88ECE82E36
:102BB00083ECF82E1092B2011092B3011092B4017E
:102BC0001092B501C092B601D092B701E092B8015F
:102BD000F092B90120E030E040E752E4C501B401D1
:102BE0000E94F01987FF1BC020E030E040E752EC64
:102BF000C501B4010E94761B18168CF420E030E069
:102C0000A901C701B6010E9412190E94671A80E04B
:102C10000E942B0AC701B6010E94671A11C020E06A
:102C200030E040E752E4C501B4010E94761B18165B
:102C30005CF460E070E080E00E942B0A60E070E0ED
:102C400081E00E942B0A0AC020E030E040E752EC0D
:102C5000C501B4010E94F01987FDEBCF0E94AB05BE
:102C6000CACD11FF1ECE0091A3011091A401E090E6
:102C7000A101F090A2010E151F0538F40E94870EE5
:102C80009093A4018093A301EECF6E2D80E691E096
:102C90000E94740E0E191F091093A4010093A30142
:102CA000C0906401D12CDC2CCC2480916501C82A11
:102CB000E0906801F12CFE2CEE2480916901E82A55
:102CC00000916C0110E0102F002780916D01082BFE
:102CD0006091600170E0762F662780916101682B1A
:102CE000072E000C880B990B0E949F1A20E030E001
:102CF00040E858E30E94831B4B015C01609376031C
:102D0000709377038093780390937903B601DD0C79
:102D1000880B990B0E949F1A20E030E040E858E3AE
:102D20000E94831B2B013C0160937A0370937B0309
:102D300080937C0390937D03B701FF0C880B990B64
:102D40000E949F1A20E030E040E858E30E94831B75
:102D5000CB56DF4F688379838A839B83C559D040E4
:102D600060937E0370937F0380938003909381032D
:102D7000B801110F880B990B0E949F1A20E030E0D8
:102D800040E858E30E94831BC756DF4F688379836E
:102D90008A839B83C959D0406093820370938303D5
:102DA00080938403909385039B01AC01C301B2011E
:102DB0000E94831B6B017C01CB56DF4F2881398138
:102DC0004A815B81C559D040C501B4010E94831B73
:102DD0009B01AC01C701B6010E9411199B01AC0116
:102DE0000E941219C356DF4F688379838A839B83BD
:102DF000CD59D04060936A0370936B0380936C034A
:102E000090936D03A3019201C501B4010E94831B3D
:102E10006B017C01C756DF4F288139814A815B8174
:102E2000C959D040CB56DF4F688179818A819B8117
:102E3000C559D0400E94831B9B01AC01C701B6015C
:102E40000E9412199B01AC010E941219CF55DF4F4D
:102E5000688379838A839B83C15AD04060936E03D1
:102E600070936F038093700390937103A501940195
:102E7000C501B4010E94831B6B017C01A301920177
:102E8000C301B2010E94831B9B01AC01C701B601C3
:102E90000E9411196B017C01CB56DF4F28813981CB
:102EA0004A815B81C559D040CA01B9010E94831B88
:102EB0009B01AC01C701B6010E9411196B017C0195
:102EC000C756DF4F288139814A815B81C959D0407B
:102ED000CA01B9010E94831B9B01AC01C701B60165
:102EE0000E9412196B017C0160937203709373034B
:102EF0008093740390937503A5019401C501B401F7
:102F00000E941219CB55DF4F688379838A839B8394
:102F1000C55AD040A3019201C301B2010E94121907
:102F2000C755DF4F688379838A839B83C95AD04012
:102F3000A5019401CB55DF4F688179818A819B81FE
:102F4000C55AD0400E94831B4B015C01A301920132
:102F5000C755DF4F688179818A819B81C95AD040EA
:102F60000E94831B9B01AC01C501B4010E94121990
:102F700020E030E040E85FE30E9411194B015C0162
:102F8000CB56DF4F288139814A815B81C559D040BA
:102F9000C755DF4F688179818A819B81C95AD040AA
:102FA0000E94831B2B013C01C756DF4F28813981CA
:102FB0004A815B81C959D040CB55DF4F6881798107
:102FC0008A819B81C55AD0400E94831B9B01AC0122
:102FD000C301B2010E941119A50194010E94911927
:102FE0004B015C016093540170935501809356012D
:102FF00090935701A7019601C701B6010E94831B58
:103000002B013C01CF55DF4F288139814A815B81FB
:10301000C15AD040CA01B9010E94831BA301920189
:103020000E9412190E94F61B9B01AC01C356DF4F90
:10303000688179818A819B81CD59D0400E94F519A0
:103040000E94C1196B017C01609358017093590172
:1030500080935A0190935B01C356DF4F28813981D9
:103060004A815B81CD59D040CA01B9010E94831BBE
:10307000A30192010E9412190E94F61B9B01AC0150
:10308000CF55DF4F688179818A819B81C15AD040B9
:103090000E94F5190E94C1192B013C0160935C014B
:1030A00070935D0180935E0190935F0120E030E0BA
:1030B00044E353E4C501B4010E94831B2BED3FE0C0
:1030C00049E450E40E94F5196093C2017093C30172
:1030D0008093C4019093C50120E030E044E353E4C1
:1030E000C701B6010E94831B2BED3FE049E450E489
:1030F0000E94F5196093BE017093BF018093C001D7
:103100009093C10120E030E044E353E4C301B201F5
:103110000E94831B2BED3FE049E450E40E94F51927
:103120006093BA017093BB018093BC019093BD0181
:10313000B8CBE1ECF2E01382128288EE93E0A0E0DB
:10314000B0E084839583A683B78320E131E03183A7
:10315000208325EC30E03587248724EC30E0378766
:10316000268720EC30E0318B208B21EC30E0338B54
:10317000228B22EC30E0358B248B26EC30E0378B31
:10318000268B118E128E138E148EEEE5F3E01382D1
:10319000128284839583A683B78382E291E0918330
:1031A000808388E680938603E6E7F3E080E090E0A2
:1031B000A0E8BFE380839183A283B3831482158246
:1031C000168217821086118612861386148615863B
:1031D00016861786E5EAF3E01182108213821282C6
:1031E00015821482EFE9F3E01182108213821282B9
:1031F00015821482E9E9F3E01182108213821282AF
:1032000015821482EAE6F3E01082118212821382A0
:1032100014821582168217821086118612861386F2
:1032200008955058BB27AA270E9429190C943C1BCB
:103230000E942E1B38F00E94351B20F039F49F3F6E
:1032400019F426F40C94041B0EF4E095E7FB0C949F
:10325000FE1AE92F0E944D1B58F3BA176207730735
:103260008407950720F079F4A6F50C946F1B0EF4F3
:10327000E0950B2EBA2FA02D0B01B90190010C0186
:10328000CA01A0011124FF27591B99F0593F50F49E
:10329000503E68F11A16F040A22F232F342F4427F6
:1032A000585FF3CF469537952795A795F0405395EE
:1032B000C9F77EF41F16BA0B620B730B840BBAF0BE
:1032C0009150A1F0FF0FBB1F661F771F881FC2F729
:1032D0000EC0BA0F621F731F841F48F4879577953D
:1032E0006795B795F7959E3F08F0B0CF9395880FF7
:1032F00008F09927EE0F9795879508950E942E1B49
:1033000060F080E891E009F49EEF0E94351B28F000
:1033100040E851E071F45EEF0CC00C94041B0C9477
:103320006F1BE92FE0780E944D1B40F3092E052A00
:10333000B1F3261737074807590738F00E2E07F85C
:10334000E02569F0E025E0640AC0EF6307F8009427
:1033500007FADB01B9019D01DC01CA01AD01EF9360
:103360000E940C1A0E943C1B0E94C1195F915523B8
:1033700039F02BED3FE049E450FD49EC0C94121973
:103380000895DF93DD27B92FBF7740E85FE3161676
:10339000170648075B0718F4D92F0E947B1B9F93E1
:1033A0008F937F936F930E94361CE8E6F0E00E94B3
:1033B000071B0E943C1B2F913F914F915F910E94F0
:1033C000961BDD2351F09058A2EA2AED3FE049EC2C
:1033D0005FE3D0785D270E942919DF910C943C1B94
:1033E0000E94DA1A08F481E008950E94091A0C94E8
:1033F0003C1B0E94351B58F00E942E1B40F029F404
:103400005F3F29F00C94FE1A51110C94701B0C9420
:10341000041B0E944D1B68F39923B1F3552391F3CC
:10342000951B550BBB27AA2762177307840738F033
:103430009F5F5F4F220F331F441FAA1FA9F335D090
:103440000E2E3AF0E0E832D091505040E695001C44
:10345000CAF72BD0FE2F29D0660F771F881FBB1FFE
:10346000261737074807AB07B0E809F0BB0B802DDC
:10347000BF01FF2793585F4F3AF09E3F510578F008
:103480000C94FE1A0C94701B5F3FE4F3983ED4F347
:10349000869577956795B795F7959F5FC9F7880FDC
:1034A000911D9695879597F90895E1E0660F771F2E
:1034B000881FBB1F621773078407BA0720F0621BBF
:1034C000730B840BBA0BEE1F88F7E09508950E94EA
:1034D0006E1A6894B1110C94701B08950E94551BCC
:1034E00088F09F5798F0B92F9927B751B0F0E1F0C5
:1034F000660F771F881F991F1AF0BA95C9F714C075
:10350000B13091F00E946F1BB1E008950C946F1BD5
:10351000672F782F8827B85F39F0B93FCCF38695AD
:1035200077956795B395D9F73EF49095809570950A
:1035300061957F4F8F4F9F4F0895E89409C097FB87
:103540003EF490958095709561957F4F8F4F9F4F7A
:103550009923A9F0F92F96E9BB279395F6958795BE
:1035600077956795B795F111F8CFFAF4BB0F11F481
:1035700060FF1BC06F5F7F4F8F4F9F4F16C0882328
:1035800011F096E911C0772321F09EE8872F762F5E
:1035900005C0662371F096E8862F70E060E02AF09F
:1035A0009A95660F771F881FDAF7880F969587958B
:1035B00097F90895990F0008550FAA0BE0E8FEEF60
:1035C00016161706E807F907C0F012161306E407E7
:1035D000F50798F0621B730B840B950B39F40A26E0
:1035E00061F0232B242B252B21F408950A2609F4BE
:1035F000A140A6958FEF811D811D089597F99F67C2
:1036000080E870E060E008959FEF80EC0895DF931C
:10361000CF931F930F93FF92EF92DF927B018C0168
:10362000689406C0DA2EEF010E94961BFE01E89412
:10363000A5912591359145915591A6F3EF010E94F1
:103640002919FE019701A801DA9469F7DF90EF903C
:10365000FF900F911F91CF91DF91089500240A945C
:103660001616170618060906089500240A9412165D
:103670001306140605060895092E0394000C11F490
:10368000882352F0BB0F40F4BF2B11F460FF04C03D
:103690006F5F7F4F8F4F9F4F089557FD9058440F96
:1036A000551F59F05F3F71F04795880F97FB991FA1
:1036B00061F09F3F79F0879508951216130614065E
:1036C000551FF2CF4695F1DF08C0161617061806EB
:1036D000991FF1CF86957105610508940895E894C6
:1036E000BB2766277727CB0197F908950E94DA1A3E
:1036F00008F48FEF08959B01AC0160E070E080E872
:103700009FE30C94F5190E94961B0C943C1B0E949D
:103710002E1B38F00E94351B20F0952311F00C94DD
:10372000FE1A0C94041B11240C94701B0E944D1B58
:1037300070F3959FC1F3950F50E0551F629FF00104
:10374000729FBB27F00DB11D639FAA27F00DB11D1D
:10375000AA1F649F6627B00DA11D661F829F2227A6
:10376000B00DA11D621F739FB00DA11D621F839F2D
:10377000A00D611D221F749F3327A00D611D231F03
:10378000849F600D211D822F762F6A2F11249F5751
:1037900050409AF0F1F088234AF0EE0FFF1FBB1F54
:1037A000661F771F881F91505040A9F79E3F510513
:1037B00080F00C94FE1A0C94701B5F3FE4F3983E6B
:1037C000D4F3869577956795B795F795E7959F5FBD
:1037D000C1F7FE2B880F911D9695879597F908954F
:1037E00019F416F40C94041B0C943F1C0E94551BF6
:1037F000B8F39923C9F3B6F39F57550B87FF0E947F
:103800004D1C0024A0E640EA9001805856959795FB
:1038100028F4805C660F771F881F20F02617370773
:10382000480730F4621B730B840B202931294A2B83
:10383000A69517940794202531254A2758F7660F37
:10384000771F881F20F026173707480730F4620BD0
:10385000730B840B200D311D411DA09581F7B9011B
:10386000842F9158880F9695879508959B01AC01F8
:103870000C94831B0E94DA1A880B990B08959F3FC2
:1038800031F0915020F4879577956795B795880F1B
:10389000911D9695879597F9089591505040660F20
:1038A000771F881FD2F70895AA1BBB1B51E107C0E1
:1038B000AA1FBB1FA617B70710F0A61BB70B881FC0
:1038C000991F5A95A9F780959095BC01CD0108954F
:1038D000A1E21A2EAA1BBB1BFD010DC0AA1FBB1F14
:1038E000EE1FFF1FA217B307E407F50720F0A21B86
:1038F000B30BE40BF50B661F771F881F991F1A94F3
:1039000069F760957095809590959B01AC01BD011C
:10391000CF010895EE0FFF1F0590F491E02D09945B
:10392000CF93DF938230910510F482E090E0E09134
:10393000AD03F091AE0320E030E0C0E0D0E030977E
:1039400011F14081518148175907C0F048175907B4
:1039500061F482819381209719F09B838A832BC025
:103960009093AE038093AD0326C02115310519F065
:103970004217530718F49A01BE01DF01EF010280DC
:10398000F381E02DDCCF2115310509F1281B390B1E
:103990002430310590F412968D919C911397611506
:1039A000710521F0FB019383828304C09093AE03E1
:1039B0008093AD03FD01329644C0FD01E20FF31F79
:1039C00081939193225031092D933C933AC02091D9
:1039D000AB033091AC03232B41F4209106013091CD
:1039E00007013093AC032093AB0320910401309185
:1039F00005012115310541F42DB73EB7409108016D
:103A000050910901241B350BE091AB03F091AC03FD
:103A1000E217F307A0F42E1B3F0B2817390778F0A5
:103A2000AC014E5F5F4F2417350748F04E0F5F1F04
:103A30005093AC034093AB038193919302C0E0E0B9
:103A4000F0E0CF01DF91CF9108950F931F93CF93B3
:103A5000DF93009709F48CC0FC0132971382128225
:103A60000091AD031091AE030115110581F4208181
:103A70003181820F931F2091AB033091AC03281743
:103A8000390779F5F093AC03E093AB0371C0D8012B
:103A900040E050E0AE17BF0750F412962D913C91D4
:103AA0001397AD012115310509F1D901F3CF9D011E
:103AB000DA013383228360817181860F971F821719
:103AC000930769F4EC0128813981260F371F2E5F97
:103AD0003F4F318320838A819B8193838283452B4F
:103AE00029F4F093AE03E093AD0342C01396FC9328
:103AF000EE931297ED01499159919E01240F351FC4
:103B0000E217F30771F480819181840F951F02966B
:103B100011969C938E938281938113969C938E939E
:103B20001297E0E0F0E0D80112968D919C911397E6
:103B3000009719F0F8018C01F6CF8D919C919801B6
:103B40002E5F3F4F820F931F2091AB033091AC0348
:103B50002817390769F4309729F41092AE031092B0
:103B6000AD0302C0138212821093AC030093AB0327
:103B7000DF91CF911F910F910895A0E0B0E0E3ECA9
:103B8000FDE10C94A61EEC01009721F4CB010E94EC
:103B9000901CB8C0FC01E60FF71F9C0122503109B0
:103BA000E217F30708F4ACC0D9010D911C911197ED
:103BB00006171707B0F00530110508F49FC0C801BB
:103BC00004978617970708F499C002501109061B3D
:103BD000170B019311936D937C93CF010E94251DC8
:103BE0008DC05B01A01AB10A4C01800E911EA091FC
:103BF000AD03B091AE0340E050E0E12CF12C109702
:103C000009F44AC0A815B905D1F56D907C901197BB
:103C1000630182E0C80ED11CCA14DB0480F1A30149
:103C20004A195B096A0182E0C80ED11C1296BC9049
:103C300012971396AC91B5E0CB16D10440F0B28246
:103C4000A38351834083D9016D937C930AC00E5F97
:103C50001F4FC301800F911FF90191838083EB2DCA
:103C6000FA2FE114F10431F0D7011396FC93EE938F
:103C7000129744C0F093AE03E093AD033FC08D9123
:103C80009C9111974817590708F4AC017D011296D1
:103C90000D90BC91A02DB3CF8091AB039091AC035C
:103CA00088159905E1F446175707C8F48091040177
:103CB00090910501009741F48DB79EB7409108019E
:103CC00050910901841B950BE817F907C8F4F0938C
:103CD000AC03E093AB03F901718360830FC0CB01A8
:103CE0000E94901C7C01009759F0A801BE010E941F
:103CF000991ECE010E94251DC70104C0CE0102C03D
:103D000080E090E0CDB7DEB7EEE00C94C21E81E01B
:103D100090E0F8940C94D91EFB01DC0104C08D9155
:103D20000190801921F441505040C8F7881B990B2D
:103D30000895FB01DC0102C001900D9241505040FA
:103D4000D8F708952F923F924F925F926F927F9291
:103D50008F929F92AF92BF92CF92DF92EF92FF929B
:103D60000F931F93CF93DF93CDB7DEB7CA1BDB0B47
:103D70000FB6F894DEBF0FBECDBF09942A883988EC
:103D800048885F846E847D848C849B84AA84B984F3
:103D9000C884DF80EE80FD800C811B81AA81B981FF
:103DA000CE0FD11D0FB6F894DEBF0FBECDBFED0113
:063DB0000895F894FFCF16
:103DB600DA05DA050000AF038000E8030000000022
:103DC6004205D10CDA0489050B05E904FD0400005F
:103DD60000006906390699060D0631061D060E060F
:103DE6004E6F742072656164204D50553630353003
:103DF600000D0A006E616E00696E66006F766600E1
:00000001FF
